:020000040800F2
:1000000080020020D50000089B0300089903000827
:1000100000000000000000000000000000000000E0
:10002000000000000000000000000000FD040008C7
:1000300000000000000000009D030008010500080A
:10004000E700000800000000E7000008E7000008E3
:10005000E7000008E7000008E7000008E7000008E4
:10006000E7000008E7000008E7000008E7000008D4
:10007000E7000008E7000008E7000008E7000008C4
:1000800000000000E7000008000000000000000081
:1000900000000000E7000008E7000008E700000893
:1000A00000000000E700000800000000E700000872
:1000B000E700000800000000000000000000000051
:1000C0000348854600F046F800480047111700082D
:1000D000800200200448804704480047FEE7FEE70E
:1000E000FEE7FEE7FEE7FEE751050008C100000855
:1000F000D2B201E00270401C491EFBD270470022C0
:10010000F6E710B513460A4604461946FFF7F0FF16
:10011000204610BD70B50446002903D000202022DF
:10012000012310E0002801D00020C043C046C04693
:100130000DE02546D5408D4205D30D469540641B04
:100140001D46954040191546521E002DF1DC2146F2
:1001500070BD0000064C0125064E05E0E36807CCA3
:100160002B430C3C98471034B442F7D3FFF7ACFF55
:10017000202000084020000810B5012806D00A28D9
:1001800019D0092801D100291ED010BD0220084332
:100190000228FAD11248134B4360046801229443A9
:1001A000046043600468046043608368002913D0DE
:1001B0000021816010BD0A48026806239A4302604C
:1001C00002680A43026010BD05480168602291433D
:1001D00001600168016010BD1343836010BDC0461B
:1001E000047C0140E15A0000F0B583B00D680023A3
:1001F00002240095029115E0016829400160A640A3
:10020000016831430160C1682940C160D179A140D2
:100210001646C2680A43C260009D3146241D9B1CDD
:10022000102B58D001229A4015422FD0A51E03262C
:10023000AE40F64301960F797E1E012E13D88668D4
:1002400001990E40866002994E79AE408168314333
:10025000816041689143416002998979994089B2EE
:1002600042680A4342600168019A11400160AF4050
:10027000016839430160C1681140C160029EF17993
:10028000A940C2680A43C260009D314602279F40D0
:100290002A463A40BA42C1D10322A240D5430A4677
:1002A0000E79711E0129A7D8591C01918168294036
:1002B00081605179A14082680A4382604168B943F4
:1002C000416002998979019A914089B242680A4352
:1002D0004260029A90E7097A002904D0016BA94391
:1002E000016303B0F0BD016B2943016303B0F0BDAE
:1002F00010B54907C90E0F238B40046A9C43046262
:100300008A40016A1143016210BD00690840411E24
:1003100088417047002A02D0182281507047282255
:1003200081507047F0B585B0019106460920400420
:100330000124214600F034F8A003214600F03EF8E5
:10034000B7001348C519686803212246FFF7D0FF9C
:10035000A86806212246FFF7CBFF0E48039008202D
:100360000290686802AE3146FFF73EFF40200290DF
:10037000A8683146FFF738FF054DE859019901F0AB
:1003800053F9E859214601F041F905B0F0BDC046E6
:100390004000002002010001FEE7704770470000A6
:1003A000054A002903D011680143116070471168A4
:1003B000814311607047C04614100240054A00296D
:1003C00003D01168014311607047116881431160C7
:1003D0007047C04618100240F0B581B00446B74FD0
:1003E00039680C220A40042A03D03E480C2A03D064
:1003F00003E03B480C2A00D13B4820603968CA081A
:100400001E211140394A515A0090FFF783FE0646DB
:10041000606038684005400F3549085CC640A660FA
:10042000344D2968890F3448AB4907D10968490020
:10043000C90E891CFFF76EFE009D13E001218B079A
:10044000032292072F6817409F4203D170089B4FE9
:10045000009D07E028681040C9078842974F009D1B
:1004600001D1B008E0609C4A1068000430460CD40A
:10047000F86AC006284608D41F200004116801400D
:10048000891C1D48FFF746FE934A2061F96A032044
:100490000840032804D00128304608D1284606E049
:1004A00010681F210140891C1348FFF733FE60616B
:1004B000F86A8003800F032805D0012800D12E465A
:1004C000A66101B0F0BD844800681F210140891C6D
:1004D0000948FFF71FFE0646A66101B0F0BDC04601
:1004E0000048E801006CDC0260EA0000C81D00085A
:1004F000E81D00081024014000D8B805704700002E
:100500001248C189002902D0C189491EC181C18A0E
:10051000002902D0C18A491EC182C18B002902D0A4
:10052000C18B491EC183C18C002902D0C18C491ED8
:10053000C184C18D002902D0C18D491EC185C18EE3
:10054000002902D0C18E491EC186704704000020D8
:10055000F0B589B05948031F19680122029211436E
:1005600019600168564A0A400260C16A1322914329
:10057000C162002101914160524D2A681E6897B204
:10058000D443210C504C8F4205D150490E40E11EFE
:100590000A4032431A60AA68EF682D690299090778
:1005A00086690E43866100952E0A91B2D5432D0CC3
:1005B000A94204D1464D2C6046490A406A62F2B213
:1005C000B9B2FD432D0CA94206D1390A404E346020
:1005D000C9B2FDB27561B1610099C943090E8A4281
:1005E00002D13B490C600A62019F08970797069762
:1005F0000597049703971968029A114319600F2110
:10060000C902354A15688D4315600725E902166849
:100610000E43166019680226314007910899491C5B
:1006200008910799002902D10899A142F2D11968CD
:10063000890705D40797294B079901293BD105E084
:1006400002990791254B0799012934D11968069120
:100650000699A943069106993143196001680591ED
:10066000F021059A8A430592059901600168049179
:100670002902049A8A43049202990902049A0A43BD
:100680000260016803910321039A8A43039203994C
:1006900002680A43026001680907890F0BD00168EC
:1006A0000907890F07D001680907890F03D001687E
:1006B0000907890FEFD15F6709B0F0BD0410024050
:1006C0001CB8FFF80CF1FF1FFFFF000003C0FFFF85
:1006D0004C7000401F1F0000E81002400020024044
:1006E0000268002903D080210A4302607047024952
:1006F0000A4002607047C0467FFF00000268002980
:1007000003D001210A430260704702490A40026097
:100710007047C046FEFF0000426C054B002903D025
:10072000591C0A43426470471A4042647047C046ED
:10073000FF7F000041617047F0B5026A194B13401A
:100740000362046A20229443456882694B888E893B
:100750001E43330123430C88344EB04214D1C026CB
:10076000B343CE8936014027BE431E438B881B010D
:1007700033430D4E35400E8AB6000C4F37402F43A1
:100780004D8AAD003D43ADB2ADB24560084D2A4043
:1007900024021443A2B282618968816399B2016222
:1007A000F0BDC046EFFF0000FFF30000FCF70000C3
:1007B000FF8C00008269034B13400902194389B280
:1007C00081617047FFF700008163704710B50468CE
:1007D000164A904203D001239B07984214D17023FC
:1007E0009C434B882343124CA04211D0114C234010
:1007F0000C891C4304604B68C3620B88836290427F
:100800000FD00121416110BD2346094CA042EDD11A
:100810009AB222604A68E2620988A16201214161BC
:1008200010BD897A11630121416110BD002C014086
:1008300000100040FFFC0000F0B581B00546002626
:10084000304603E0601C6D00072C4BD2044640216B
:100850004C4F38463246FFF75DFDE8B2C2098021B1
:100860003846FFF757FD009600981F2817D80098C4
:10087000401C009000981F2811D80098401C009040
:1008800000981F280BD80098401C009000981F2843
:1008900005D80098401C009000982028E7D34021FC
:1008A0000122ED48FFF736FD0027009700981F282A
:1008B000C8D80098401C009000981F28C2D8009803
:1008C000401C009000981F28BCD80098401C009045
:1008D00000981F28B6D80098401C00900098202847
:1008E000E7D3AFE74021DC4C20463A46FFF712FD44
:1008F000802120463A46FFF70DFD009700981F28FB
:1009000017D80098401C009000981F2811D8009814
:10091000401C009000981F280BD80098401C0090A5
:1009200000981F2805D80098401C009000982028A7
:10093000E7D340210122C848FFF7ECFC009700985C
:100940001F2817D80098401C009000981F2811D825
:100950000098401C009000981F280BD80098401C5D
:10096000009000981F2805D80098401C009000981F
:100970002028E7D340210022EF48FFF7CBFC01B04D
:10098000F0BDC04600080048F0B5042800D998E042
:10099000072358434B4C255C1F46AF4301221029C7
:1009A00000D310211646BE40474FCF40ED08FF0749
:1009B00005D1FE4F7D192F7F3E432E7704E0FB4F7C
:1009C0007D192F7FB7432F77001945781E46AE4318
:1009D0001446B4403D4ECE40ED08F60705D1F34E27
:1009E00075192E7F34432C7704E0F04E75192E7F55
:1009F000A6432E7785781E46AE431446B440344E47
:100A0000CE40ED08F60705D1E84E75192E7F344328
:100A10002C7704E0E54E75192E7FA6432E77C57816
:100A20001E46AE431446B4402A4ECE40ED08F607AB
:100A300005D1DE4E75192E7F34432C7704E0DB4E52
:100A400075192E7FA6432E7705791E46AE431446B0
:100A5000B440214ECE40ED08F60705D1D34E7519AE
:100A60002E7F34432C7704E0D04E75192E7FA64399
:100A70002E7745791E46AE431446B440174ECE40FD
:100A8000ED08F60705D1C94E75192E7F34432C7732
:100A900004E0C64E75192E7FA6432E7780798343D6
:100AA0009A400F4BCB40C008D90705D1BF49081861
:100AB000017F0A430277F0BDBC490818017F9143CA
:100AC0000177F0BDF01D00081228010060D8010078
:100AD00004D0010092840100BA0201008E200100BE
:100AE00083100100F0B581B004460020102529468E
:100AF000FFF74AFF01202946FFF746FF022029465B
:100B0000FFF742FF03202946FFF73EFF0426304649
:100B10002946FFF739FF214F38466043C50C0A20AC
:100B200000906843201AC1B23046FFF72DFF0A2C0F
:100B300032D338466843C00C00994843281A81B222
:100B40000320FFF721FF642C26D3A008144941435A
:100B5000480C4743F90C009A5143401A81B20220D5
:100B6000FFF712FFE0087D2816D30E494143080D18
:100B7000CD214143C90A009A4A43801AC1B20120DB
:100B8000FFF702FF0848844206D320090749414382
:100B9000C90C0020FFF7F8FE01B0F0BDCDCC00007D
:100BA0007B140000C5200000102700004703000050
:100BB000B0B582B0604C8021012520462A46FFF75F
:100BC000A9FB402120462A46FFF7A4FB00250095FB
:100BD00000981F2817D80098401C009000981F28E4
:100BE00011D80098401C009000981F280BD800983E
:100BF000401C009000981F2805D80098401C0090C9
:100C000000982028E7D3802120462A46FFF782FB60
:100C1000019501981F2817D80198401C0190019850
:100C20001F2811D80198401C019001981F280BD84B
:100C30000198401C019001981F2805D80198401C7C
:100C4000019001982028E7D3402100222046FFF799
:100C500061FB02B0B0BDC04600080048B0B584B02A
:100C6000354C402101222046FFF754FB0025019519
:100C700001981F2817D80198401C019001981F283F
:100C800011D80198401C019001981F280BD8019899
:100C9000401C019001981F2805D80198401C019024
:100CA00001982028E7D3802120462A46FFF732FB0F
:100CB000029502981F2817D80298401C02900298AB
:100CC0001F2811D80298401C029002981F280BD8A8
:100CD0000298401C029002981F2805D80298401CD8
:100CE000029002982028E7D3802101222046FFF7B6
:100CF00011FB039503981F2817D80398401C0390F5
:100D000003981F2811D80398401C039003981F28AC
:100D10000BD80398401C039003981F2805D803980C
:100D2000401C039003982028E7D34021002220464E
:100D3000FFF7F0FA04B0B0BD0008004810B5FFF7A7
:100D400037FF7C20FFF778FD0020FFF775FD174C7B
:100D5000207FFFF771FD607FFFF76EFDA07FFFF73B
:100D60006BFDE07FFFF768FD1C342079FFF764FD21
:100D70006079FFF761FDA079FFF75EFDE079FFF78D
:100D80005BFD207AFFF758FD607AFFF755FDA07AEA
:100D9000FFF752FDE07AFFF74FFD207BFFF74CFD98
:100DA000607BFFF749FDFFF759FF10BD50000020A1
:100DB000B0B572B6EA4801790022027143794271F6
:100DC0008479827162B6002C2AD0C479022C02D1B7
:100DD0000324C47120E0C479012C0AD10273E14CD0
:100DE000012525710261427A8272A2792270C27A4B
:100DF0000270DC4A1489002C05D0447BC579012D92
:100E000007D1022C05D114783C25654304782C19B0
:100E100014810222C271827AD24C0125657102725C
:100E20004AB2002B22D0C17901290DD100210161E4
:100E3000CC4B01211971037B012B2FD102210173AE
:100E4000417A012A15DA31E0C17901290ED0C17940
:100E50000123C371C34C2371002505614173817A5D
:100E600041722178A1710178C1720373417A012A1C
:100E70001CDBD30703D11346012A50D07CE0C37991
:100E8000012B49D1037B012B18D1F84B01245C7154
:100E90005F2900DB5F21491D417238E0037B022B93
:100EA00000D103210173417A012AE2DA002A36D502
:100EB000D3070DD11346521C31D0E7E0037B022B40
:100EC0001AD1FC4CA379622B00DB6223A41D1CE029
:100ED000C379012B00D0D5E0037B012B00D0B4E017
:100EE000F44B01245C71692900DB6921052900DCD0
:100EF0000521491F4172C0E0037B032B07D1C37A50
:100F00003A2B00DB3A2304460B345B1C237000238E
:100F10000361E84B01241C71531E012A2CD1C279B4
:100F2000012A00D090E0038A0A330382428A0A32FF
:100F300042829BB29B087D2B06D300230382FB4B8E
:100F40001C7901252C1B1C7192B2874B9A427BD3D2
:100F5000C279012A78D18172F44A94791470C37AE3
:100F60000370457B032D5DD0022D5FD101255571A6
:100F700001720221C1715EE0EC4A0AE0491D417232
:100F800000240461012414719C1EDBB2022B234651
:100F9000C5D9C479012C23D1047B012C08D10124AB
:100FA0005471C9B25F2900DB5F21491D417213E012
:100FB000047B022C05D19479622C00DB6224951D00
:100FC00008E0047B032C07D1C47A3A2C00DB3A24D6
:100FD00005460B35641C2C70002404610124147137
:100FE000C479012CD0D1047B012C06D10124547189
:100FF000C9B25F29C2DB5F21C0E7047B022C05D1A7
:101000009479622C00DB6224951D08E0047B032C9C
:10101000B6D1C47A3A2C00DB3A2405460B35641C61
:101020002C70ADE70321C171002101E00021C171E5
:101030000172012151713C216143C91811810121C3
:101040001171002101730161B0BD037B022B06D138
:10105000B64CA379642B00DB6423A41D08E0037B5A
:10106000032B0AD1C37A3C2B00DB3C2304460B3410
:10107000012B00DC01235B1E237000230361AB4BBB
:1010800001241C71531C521C00D148E7F94A0DE0A1
:10109000491F417200240461012414719C1C012524
:1010A000ED435BB2AB42234600DB38E7C479012C49
:1010B0002CD1047B012C0BD101245471C9B26929B4
:1010C00000DB6921052900DC0521491F417219E077
:1010D000047B022C0AD19479642C00DB6424951DD6
:1010E000012C00DC0124641E2C700BE0047B032C1B
:1010F00008D1C47A3C2C00DB3C2405460B35012C7E
:10110000F0DDF0E70024046101241471C479012C9E
:10111000C4D1047B012C09D101245471C9B26929BD
:1011200000DB69210529B3DC0521B1E7047B022C32
:101130000AD19479642C00DB6424951D012C00DC19
:101140000124641E2C70A5E7047B032CA2D1C47A71
:101150003C2C00DB3C2405460B35012CF0DDF0E790
:10116000500000200400002088130000B0B53E4C61
:1011700008212046FFF7C9F8054610212046FFF751
:10118000C4F8411E8841691E8D4169000818374D19
:10119000697889004118C9B2354ACA40D20726D1B8
:1011A00034A2525CB2494B789A184A7052B2042A5F
:1011B0000ADB8A69521C8A6100224A7004228A561C
:1011C000782A14DA01220FE00323DB439A420EDC73
:1011D0008A69521E8A6100224A7004228A56762346
:1011E000DB439A4203DBFF220B799A180A7168707D
:1011F00020212046FFF789F8421E01469141AA7836
:101200009B4B8A4204D100249C70002816D0B0BDAC
:101210009C78641C9C70E4B2032CF8D3E970A9702C
:1012200000249C70002818D0D878012804D0D889D0
:10123000002801D001205871DC810FE0D889114CC1
:10124000A04201D8801CD881DC78012CDFD00E4C64
:10125000A042DCD30120987100E0DC81501A4142A9
:101260004141E848C170B0BD0008004804000020BA
:101270006996000000FF0100010000FFFF0000016F
:101280000001FF005FEA0000B80B0000DD48C179F3
:10129000022907D1DC490A89002A04D0521E0A819A
:1012A000120400D070470322C27100220272012092
:1012B0004871704704000020B0B5D34D687900280C
:1012C00032D0D049C879022811D0C879012807D175
:1012D0004A7B087B012804D1022A02D14A7A07E01E
:1012E0004A7BCB790020012B04D1022A02D10A7A51
:1012F0000A2050438882888AC2087D2A02D3C88A7D
:10130000401C06E0C98A491C48437D21C900FEF7FC
:1013100001FF81B2064C2046FFF756FA0121204614
:10132000FFF708FA00206871B0BDC0460400002035
:10133000002C0140F0B583B04D4AD079022801D08D
:10134000002000E0107A4B4B1D89A9B24A4C4C4357
:10135000D179032908D0022908D0012908D1117BAD
:1013600001295ED149A104E046A102E043A100E0C9
:1013700052A1660DD779012F03D03446012F03D037
:1013800003E09C79012F00D1507A012F06D03C2731
:101390007743ED1BD679012E04D010E0D57AD679AB
:1013A000012E0CD11E79177B012F08D1002E06D1FA
:1013B000D87892690192002838D0434837E0D6792E
:1013C000012E0CD11E79177B022F08D1002E06D1D9
:1013D000DB7892690192002B31D03B4A30E0D6791C
:1013E000012E0CD11E79177B032F08D1002E06D1B8
:1013F000DB7892690192002B2AD0334A29E0DB780E
:1014000092690292002B01D02F4A00E02D4AEBB2E4
:1014100000930192C2B2E3B22C4800F00DFB03B07E
:10142000F0BD117B02291CD11CA1A2E72548009028
:10143000E2B2EBB2284800F0FFFA03B0F0BD214A57
:101440000092C2B2EBB2234800F0F6FA03B0F0BD4E
:101450001C4A0092C2B2E3B21D4800F0EDFA03B09C
:10146000F0BD117B032901D012A182E70EA180E714
:1014700050000020040000208988000052554E4E84
:10148000494E47005041555345440000534554547C
:10149000494E472D53504545440000005345545490
:1014A000494E472D4D494E0053455454494E472D02
:1014B0005345430053455454494E470049444C4515
:1014C00000000000152000080C200008C71F0008BD
:1014D000FC1E00083F1F0008821F0008F0B587B0FF
:1014E000484F00203885F86138627862F97901291F
:1014F0000AD1387B012816D143480079002858D0FA
:10150000787AFFF7EFFA06E0F979022900D1387A04
:10151000C0B2FFF7E7FA397F012008433877FFF7B9
:101520000DFC07B0F0BD38488679F0B2CD210591A9
:101530004843C40AF87A0490002003902146FFF73C
:1015400023FA0A256C43301BC1B201200690FFF735
:101550001BFAF87F0F2102910840F877B87FF1213C
:1015600001910840B877049CE0B205994843C60A47
:1015700003203146FFF708FA7543601BC1B204200F
:10158000FFF702FA069C20480079002833D1019B1E
:10159000029A0399387B022821D1387F204038777E
:1015A000F87F1840F87738461C30017911400171F6
:1015B00021E0002010242146FFF7E6F90120214612
:1015C000FFF7E2F902202146FFF7DEF9032021466A
:1015D000FFF7DAF904202146FFF7D6F99BE7387BBD
:1015E000032808D17977F87FFE210140F977B87F89
:1015F0000E210140B977387FA0433877FFF79EFB73
:1016000007B0F0BD50000020040000204A1E9141A8
:10161000026801239A43511801607047C06908406D
:10162000411E884170470000F0B587B00D46044662
:1016300000680127B84320600320000361688143EC
:10164000A86808436060206823490140686808432F
:10165000E96801432869084320606846FEF7BCFE3C
:101660001E48844209D0F24884420DD168461430A5
:101670000668206800040DD40DE06846183006683E
:101680002068000406D406E0684608300668206832
:10169000000400D576002D6830462946FEF73AFD55
:1016A00029464143711AFA036B08994206D2216810
:1016B000114207D180B2E06007B0F0BD401C216844
:1016C0001142F7D0064901400007400F401880B290
:1016D000E06007B0F0BDC046F3E9FFFF003C014009
:1016E000F0FF0000014A0A4082627047FF010000DB
:1016F000B0B50446C1B2CE4D2846FFF7F3FF4021F6
:101700002846FFF78BFF0028F9D02046B0BDC04621
:101710008EB00C2007900026069605960496E120D0
:101720004002039003A93046FEF7FCFD0125E802C4
:101730002946FEF743FE28052946FEF731FE0A201A
:10174000042402942146FEF717FD85480C900B9463
:10175000844C0BA92046FEF747FD0221019103228C
:101760002046FEF7C5FD08AF3E81BE727E48006888
:101770007E49FEF7CFFC401E7D49C882089680B2A4
:1017800009907C4C204639463746FFF71FF803A9DD
:10179000029888802802079001980690059676485E
:1017A00003902046FEF7C8FF08212046FFF702F805
:1017B00020462946FEF794FF20462946FEF79EFF65
:1017C00020462946FEF7A8FFEC0420462946FEF7EE
:1017D000E7FD6A48049038200390694E03A930461B
:1017E000FEF702FD20462946FEF7DAFDC0200390F1
:1017F0006448049003A930465D4EFEF7F5FCFFF700
:101800002DFAFFF7D5F97C20FFF716F8EA20FFF74D
:1018100013F8A220FFF710F8F020FFF70DF8FC20D6
:10182000FFF70AF8C820FFF707F8FFF717FA304666
:1018300021300921FEF763FC30461C30B0210171D4
:101840005148F061FFF77AFA7D20C10046480068F0
:10185000FEF760FC401E010E00D0FEE74B494C4AEB
:1018600050604C4803680B4007214C071B1903606C
:1018700097601160484D28783C2141433078081822
:101880002881464800F0D8F8454800F0D5F845488A
:1018900000F0D2F8444800F0CFF8444800F0CCF80B
:1018A000434800F0C9F8434800F0C6F842A000F0F1
:1018B000C3F84BA000F0C0F851A000F0BDF85C4C9C
:1018C00040212046FFF7AAFE0028F9D0594800F031
:1018D000B3F8E88900280FD0E88A002815D0E88BF3
:1018E00000281BD0E88C002821D0E88D002827D0C4
:1018F000E88E0028EDD12CE072B6A889E88162B6A6
:1019000028698047E88A0028E9D172B6A88AE88267
:1019100062B6A8698047E88B0028E3D172B6A88B2D
:10192000E88362B6286A8047E88C0028DDD172B669
:10193000A88CE88462B6A86A8047E88D0028D7D1D1
:1019400072B6A88DE88562B6286B8047E88E0028BD
:10195000BFD172B6A88EE88662B6A86B8047B8E79A
:1019600002030001000C00484C000020A2440000CB
:1019700050000020002C0140700001000001000117
:1019800000080048010100010B0E4E9CFFFFFF0004
:1019900010E000E020ED00E004000020AC1E000894
:1019A000D91E0008AE1E0008781E0008131E00088D
:1019B000371E0008921E000853686F727420507220
:1019C0006573733A20656E7465722F616476616E1B
:1019D00063652073657474696E670A0D000000000A
:1019E0004C6F6E6720507265737320283373293AE9
:1019F0002073746172742F70617573650A0D000035
:101A00003D3D3D3D3D3D3D3D3D3D3D3D3D3D3D3D06
:101A10003D3D3D3D3D3D3D3D3D3D3D3D3D3D3D3DF6
:101A20003D3D3D3D3D3D3D3D0A0D0A0D00000000A0
:101A300000380140601E00080FB410B503A9044B24
:101A4000044A029800F018F810BC08BC04B018470B
:101A5000F11600080000002002E008C8121F08C1AB
:101A6000002AFAD170477047002001E001C1121F1F
:101A7000002AFBD170470000FFB58FB00546002655
:101A800006E025280AD0129A119990476D1C761C01
:101A900028780028F5D1304613B0F0BD0024029418
:101AA0000121B54A009400E004436D1C2B780846E0
:101AB000203B98401042F7D128782A280ED00222E5
:101AC000287801463039092916D802990A23594342
:101AD0003039401814436D1C0290F1E7109802C889
:101AE00002911090002904DA012040030443484287
:101AF0000290022004436D1C28782E2817D1042060
:101B0000044368786D1C2A280CD110986D1C02C8FB
:101B1000009110900BE000990A225143303940188F
:101B20006D1C00902878014630390929F3D92878AE
:101B30006C2810D006DC4C281AD068280ED06A28F1
:101B400017D104E0742813D07A2812D110E00120B4
:101B5000400504430CE00121090501E003210905CA
:101B60000C436978814203D10120000524186D1CC3
:101B70006D1C2878692874D006DC00288BD0632877
:101B800027D0642806D16CE06E2808D073282CD0AA
:101B9000752878D0129A11999047761C5FE0600200
:101BA000400F022809D003280DD00428109801689E
:101BB0000DD00E60001D109051E01098F2170168D2
:101BC0000E604A60F6E7109801680E80F2E70E702A
:101BD000F0E710986A4601781173001D10900020FC
:101BE000507303A80190012005E0109802C80191EC
:101BF00010900020C04361070CD5002700E07F1C37
:101C000000998F420FDA8742F9DB0199C95D0029FB
:101C1000F5D108E0002700E07F1C8742FCDB01993A
:101C2000C95D0029F8D102982146C01B0290129B81
:101C3000119A00F0B3F88019C61907E001980199CC
:101C40000078491C0191129A119990477F1EF5D294
:101C50002146129B119A029800F090F886196D1C8B
:101C600016E70A200190109901C910916102490FED
:101C7000032900D100B2042900D140B2002803DAC0
:101C800040422D2103E00DE0210504D52B216A46B9
:101C90001173012103E0E10711D02021F7E70CAF18
:101CA0000C9114E00A200190109901C91091610271
:101CB000490F032900D180B2042900D1C0B200210C
:101CC000EDE70199FEF726FA30317F1E39700028C2
:101CD000F7D104A8C01B20300190600704D5012073
:101CE00000048443009801E001200090019988429B
:101CF00001DD401A00E00020411800900C980918FE
:101D00000298401A0290E00306D42146129B119AD1
:101D1000029800F043F8861900200D9008E003A90E
:101D2000085C129A119990470D98401C761C0D90F2
:101D30000C998842F3DBE0030CD52146129B119AE3
:101D4000029800F02BF8861904E0129A30201199BD
:101D50009047761C0099481E00900029F5DC05E0AC
:101D60003878129A7F1C11999047761C0199481E69
:101D700001900029F4DC6BE709280100F8B504465E
:101D800000251E461746880404D405E03946202065
:101D9000B0476D1C641EF9D52846F8BDFFB5044652
:101DA000002581B01E46C80301D5302700E020275A
:101DB000880404D505E038460399B0476D1C641EBD
:101DC000F9D5284605B0F0BD01000600010001006C
:101DD00001000100010001000200040008001000E1
:101DE0004000800000010002000000000102030426
:101DF00000040603020105201C1E2322211D1814C5
:101E0000161B1A1915100C0E1312110D081F0F0BAB
:101E10000A091754494D312050574D3A2031372E79
:101E200035376B487A2C205044322070696E202858
:101E3000434832290A0D004543313120412F422FBA
:101E40004B45593A205043332F5043342F5043359C
:101E50002028616374697665206C6F77290A0D000C
:101E60005374617274696E67207363686564756C1E
:101E700065722E2E2E0A0D0055415254313A2031F2
:101E8000313532303020626175642C20384E310A91
:101E90000D00544D313732392053434C2F534441B8
:101EA0003A205043362F5043370A0D000A0D3D3D6E
:101EB0003D3D3D3D3D3D3D3D3D3D3D3D3D3D3D3D52
:101EC0003D3D3D3D3D3D3D3D3D3D3D3D3D3D3D3D42
:101ED0003D3D3D3D3D3D0A0D00484B3332463033DC
:101EE00030314D787878784320486F6D6F67656E34
:101EF000697A65722044656D6F0A0D000D4D4F447F
:101F0000453A252D313073207C2053504545443AC5
:101F10002533752525207C2054494D453A253032FE
:101F2000753A2D2D207C204B45593A252D387320AC
:101F30007C20504F533A25366C6420202020000D21
:101F40004D4F44453A252D313073207C2053504568
:101F500045443A2533752525207C2054494D453A82
:101F60002D2D3A25303275207C204B45593A252DB0
:101F70003873207C20504F533A25366C6420202043
:101F800020000D4D4F44453A252D313073207C20E3
:101F900053504545443A202D2D2525207C20544979
:101FA0004D453A253032753A25303275207C204B2C
:101FB00045593A252D3873207C20504F533A253609
:101FC0006C6420202020000D4D4F44453A252D31D2
:101FD0003073207C2053504545443A2533752525E0
:101FE000207C2054494D453A253032753A2530320F
:101FF00075207C204B45593A252D3873207C205084
:102000004F533A25366C64202020200052454C4521
:10201000415345440050524553534544000000008D
:10202000402000080000002050000000581A00085E
:10203000902000085000002030020000681A0008BC
:102040000000000001030101010101003C0000004B
:10205000020000006D1100080A000000B10D000828
:1020600005000000B91200086400000035130008E4
:1020700032000000DD140008E80300008D120008A3
:102080000038014000000048000C0048006CDC02F1
:04000005080000C12E
:00000001FF
